{
  "contractName": "ENSRegistry",
  "abi": [
    {
      "inputs": [],
      "payable": false,
      "stateMutability": "nonpayable",
      "type": "constructor",
      "signature": "constructor"
    },
    {
      "anonymous": false,
      "inputs": [
        {
          "indexed": true,
          "name": "node",
          "type": "bytes32"
        },
        {
          "indexed": true,
          "name": "label",
          "type": "bytes32"
        },
        {
          "indexed": false,
          "name": "owner",
          "type": "address"
        }
      ],
      "name": "NewOwner",
      "type": "event",
      "signature": "0xce0457fe73731f824cc272376169235128c118b49d344817417c6d108d155e82"
    },
    {
      "anonymous": false,
      "inputs": [
        {
          "indexed": true,
          "name": "node",
          "type": "bytes32"
        },
        {
          "indexed": false,
          "name": "owner",
          "type": "address"
        }
      ],
      "name": "Transfer",
      "type": "event",
      "signature": "0xd4735d920b0f87494915f556dd9b54c8f309026070caea5c737245152564d266"
    },
    {
      "anonymous": false,
      "inputs": [
        {
          "indexed": true,
          "name": "node",
          "type": "bytes32"
        },
        {
          "indexed": false,
          "name": "resolver",
          "type": "address"
        }
      ],
      "name": "NewResolver",
      "type": "event",
      "signature": "0x335721b01866dc23fbee8b6b2c7b1e14d6f05c28cd35a2c934239f94095602a0"
    },
    {
      "anonymous": false,
      "inputs": [
        {
          "indexed": true,
          "name": "node",
          "type": "bytes32"
        },
        {
          "indexed": false,
          "name": "ttl",
          "type": "uint64"
        }
      ],
      "name": "NewTTL",
      "type": "event",
      "signature": "0x1d4f9bbfc9cab89d66e1a1562f2233ccbf1308cb4f63de2ead5787adddb8fa68"
    },
    {
      "constant": false,
      "inputs": [
        {
          "name": "node",
          "type": "bytes32"
        },
        {
          "name": "owner",
          "type": "address"
        }
      ],
      "name": "setOwner",
      "outputs": [],
      "payable": false,
      "stateMutability": "nonpayable",
      "type": "function",
      "signature": "0x5b0fc9c3"
    },
    {
      "constant": false,
      "inputs": [
        {
          "name": "node",
          "type": "bytes32"
        },
        {
          "name": "label",
          "type": "bytes32"
        },
        {
          "name": "owner",
          "type": "address"
        }
      ],
      "name": "setSubnodeOwner",
      "outputs": [],
      "payable": false,
      "stateMutability": "nonpayable",
      "type": "function",
      "signature": "0x06ab5923"
    },
    {
      "constant": false,
      "inputs": [
        {
          "name": "node",
          "type": "bytes32"
        },
        {
          "name": "resolver",
          "type": "address"
        }
      ],
      "name": "setResolver",
      "outputs": [],
      "payable": false,
      "stateMutability": "nonpayable",
      "type": "function",
      "signature": "0x1896f70a"
    },
    {
      "constant": false,
      "inputs": [
        {
          "name": "node",
          "type": "bytes32"
        },
        {
          "name": "ttl",
          "type": "uint64"
        }
      ],
      "name": "setTTL",
      "outputs": [],
      "payable": false,
      "stateMutability": "nonpayable",
      "type": "function",
      "signature": "0x14ab9038"
    },
    {
      "constant": true,
      "inputs": [
        {
          "name": "node",
          "type": "bytes32"
        }
      ],
      "name": "owner",
      "outputs": [
        {
          "name": "",
          "type": "address"
        }
      ],
      "payable": false,
      "stateMutability": "view",
      "type": "function",
      "signature": "0x02571be3"
    },
    {
      "constant": true,
      "inputs": [
        {
          "name": "node",
          "type": "bytes32"
        }
      ],
      "name": "resolver",
      "outputs": [
        {
          "name": "",
          "type": "address"
        }
      ],
      "payable": false,
      "stateMutability": "view",
      "type": "function",
      "signature": "0x0178b8bf"
    },
    {
      "constant": true,
      "inputs": [
        {
          "name": "node",
          "type": "bytes32"
        }
      ],
      "name": "ttl",
      "outputs": [
        {
          "name": "",
          "type": "uint64"
        }
      ],
      "payable": false,
      "stateMutability": "view",
      "type": "function",
      "signature": "0x16a25cbd"
    }
  ],
  "bytecode": "0x608060405234801561001057600080fd5b503360008080600102815260200190815260200160002060000160006101000a81548173ffffffffffffffffffffffffffffffffffffffff021916908373ffffffffffffffffffffffffffffffffffffffff1602179055506108e2806100776000396000f3fe608060405260043610610083576000357c0100000000000000000000000000000000000000000000000000000000900463ffffffff1680630178b8bf1461008857806302571be31461010357806306ab59231461017e57806314ab9038146101e357806316a25cbd146102325780631896f70a146102955780635b0fc9c3146102f0575b600080fd5b34801561009457600080fd5b506100c1600480360360208110156100ab57600080fd5b810190808035906020019092919050505061034b565b604051808273ffffffffffffffffffffffffffffffffffffffff1673ffffffffffffffffffffffffffffffffffffffff16815260200191505060405180910390f35b34801561010f57600080fd5b5061013c6004803603602081101561012657600080fd5b810190808035906020019092919050505061038a565b604051808273ffffffffffffffffffffffffffffffffffffffff1673ffffffffffffffffffffffffffffffffffffffff16815260200191505060405180910390f35b34801561018a57600080fd5b506101e1600480360360608110156101a157600080fd5b810190808035906020019092919080359060200190929190803573ffffffffffffffffffffffffffffffffffffffff1690602001909291905050506103c9565b005b3480156101ef57600080fd5b506102306004803603604081101561020657600080fd5b8101908080359060200190929190803567ffffffffffffffff16906020019092919050505061052c565b005b34801561023e57600080fd5b5061026b6004803603602081101561025557600080fd5b8101908080359060200190929190505050610629565b604051808267ffffffffffffffff1667ffffffffffffffff16815260200191505060405180910390f35b3480156102a157600080fd5b506102ee600480360360408110156102b857600080fd5b8101908080359060200190929190803573ffffffffffffffffffffffffffffffffffffffff16906020019092919050505061065c565b005b3480156102fc57600080fd5b506103496004803603604081101561031357600080fd5b8101908080359060200190929190803573ffffffffffffffffffffffffffffffffffffffff169060200190929190505050610789565b005b600080600083815260200190815260200160002060010160009054906101000a900473ffffffffffffffffffffffffffffffffffffffff169050919050565b600080600083815260200190815260200160002060000160009054906101000a900473ffffffffffffffffffffffffffffffffffffffff169050919050565b823373ffffffffffffffffffffffffffffffffffffffff1660008083815260200190815260200160002060000160009054906101000a900473ffffffffffffffffffffffffffffffffffffffff1673ffffffffffffffffffffffffffffffffffffffff1614151561043957600080fd5b60008484604051602001808381526020018281526020019250505060405160208183030381529060405280519060200120905083857fce0457fe73731f824cc272376169235128c118b49d344817417c6d108d155e8285604051808273ffffffffffffffffffffffffffffffffffffffff1673ffffffffffffffffffffffffffffffffffffffff16815260200191505060405180910390a38260008083815260200190815260200160002060000160006101000a81548173ffffffffffffffffffffffffffffffffffffffff021916908373ffffffffffffffffffffffffffffffffffffffff1602179055505050505050565b813373ffffffffffffffffffffffffffffffffffffffff1660008083815260200190815260200160002060000160009054906101000a900473ffffffffffffffffffffffffffffffffffffffff1673ffffffffffffffffffffffffffffffffffffffff1614151561059c57600080fd5b827f1d4f9bbfc9cab89d66e1a1562f2233ccbf1308cb4f63de2ead5787adddb8fa6883604051808267ffffffffffffffff1667ffffffffffffffff16815260200191505060405180910390a28160008085815260200190815260200160002060010160146101000a81548167ffffffffffffffff021916908367ffffffffffffffff160217905550505050565b600080600083815260200190815260200160002060010160149054906101000a900467ffffffffffffffff169050919050565b813373ffffffffffffffffffffffffffffffffffffffff1660008083815260200190815260200160002060000160009054906101000a900473ffffffffffffffffffffffffffffffffffffffff1673ffffffffffffffffffffffffffffffffffffffff161415156106cc57600080fd5b827f335721b01866dc23fbee8b6b2c7b1e14d6f05c28cd35a2c934239f94095602a083604051808273ffffffffffffffffffffffffffffffffffffffff1673ffffffffffffffffffffffffffffffffffffffff16815260200191505060405180910390a28160008085815260200190815260200160002060010160006101000a81548173ffffffffffffffffffffffffffffffffffffffff021916908373ffffffffffffffffffffffffffffffffffffffff160217905550505050565b813373ffffffffffffffffffffffffffffffffffffffff1660008083815260200190815260200160002060000160009054906101000a900473ffffffffffffffffffffffffffffffffffffffff1673ffffffffffffffffffffffffffffffffffffffff161415156107f957600080fd5b827fd4735d920b0f87494915f556dd9b54c8f309026070caea5c737245152564d26683604051808273ffffffffffffffffffffffffffffffffffffffff1673ffffffffffffffffffffffffffffffffffffffff16815260200191505060405180910390a28160008085815260200190815260200160002060000160006101000a81548173ffffffffffffffffffffffffffffffffffffffff021916908373ffffffffffffffffffffffffffffffffffffffff16021790555050505056fea165627a7a72305820beee9cd6726c1fcee1b7017337a4c6d9f6ab91acd4df361200d8ff4638e077410029",
  "source": "pragma solidity ^0.5.0;\r\n\r\nimport \"./ENS.sol\";\r\n\r\n/**\r\n * The ENS registry contract.\r\n */\r\ncontract ENSRegistry is ENS {\r\n    struct Record {\r\n        address owner;\r\n        address resolver;\r\n        uint64 ttl;\r\n    }\r\n\r\n    mapping (bytes32 => Record) records;\r\n\r\n    // Permits modifications only by the owner of the specified node.\r\n    modifier only_owner(bytes32 node) {\r\n        require(records[node].owner == msg.sender);\r\n        _;\r\n    }\r\n\r\n    /**\r\n     * @dev Constructs a new ENS registrar.\r\n     */\r\n    constructor() public {\r\n        records[0x0].owner = msg.sender;\r\n    }\r\n\r\n    /**\r\n     * @dev Transfers ownership of a node to a new address. May only be called by the current owner of the node.\r\n     * @param node The node to transfer ownership of.\r\n     * @param owner The address of the new owner.\r\n     */\r\n    function setOwner(bytes32 node, address owner) external only_owner(node) {\r\n        emit Transfer(node, owner);\r\n        records[node].owner = owner;\r\n    }\r\n\r\n    /**\r\n     * @dev Transfers ownership of a subnode keccak256(node, label) to a new address. May only be called by the owner of the parent node.\r\n     * @param node The parent node.\r\n     * @param label The hash of the label specifying the subnode.\r\n     * @param owner The address of the new owner.\r\n     */\r\n    function setSubnodeOwner(bytes32 node, bytes32 label, address owner) external only_owner(node) {\r\n        bytes32 subnode = keccak256(abi.encodePacked(node, label));\r\n        emit NewOwner(node, label, owner);\r\n        records[subnode].owner = owner;\r\n    }\r\n\r\n    /**\r\n     * @dev Sets the resolver address for the specified node.\r\n     * @param node The node to update.\r\n     * @param resolver The address of the resolver.\r\n     */\r\n    function setResolver(bytes32 node, address resolver) external only_owner(node) {\r\n        emit NewResolver(node, resolver);   \r\n        records[node].resolver = resolver;\r\n    }\r\n\r\n    /**\r\n     * @dev Sets the TTL for the specified node.\r\n     * @param node The node to update.\r\n     * @param ttl The TTL in seconds.\r\n     */\r\n    function setTTL(bytes32 node, uint64 ttl) external only_owner(node) {\r\n        emit NewTTL(node, ttl);\r\n        records[node].ttl = ttl;\r\n    }\r\n\r\n    /**\r\n     * @dev Returns the address that owns the specified node.\r\n     * @param node The specified node.\r\n     * @return address of the owner.\r\n     */\r\n    function owner(bytes32 node) external view returns (address) {\r\n        return records[node].owner;\r\n    }\r\n\r\n    /**\r\n     * @dev Returns the address of the resolver for the specified node.\r\n     * @param node The specified node.\r\n     * @return address of the resolver.\r\n     */\r\n    function resolver(bytes32 node) external view returns (address) {\r\n        return records[node].resolver;\r\n    }\r\n\r\n    /**\r\n     * @dev Returns the TTL of a node, and any records associated with it.\r\n     * @param node The specified node.\r\n     * @return ttl of the node.\r\n     */\r\n    function ttl(bytes32 node) external view returns (uint64) {\r\n        return records[node].ttl;\r\n    }\r\n\r\n}\r\n",
  "sourcePath": "C:/Users/N.vergauwen/Desktop/ethparis/ens-marketplace/contracts/ENSRegistry.sol",
  "compiler": {
    "name": "solc",
    "version": "0.5.0+commit.1d4f565a.Emscripten.clang"
  },
  "schemaVersion": "3.0.2",
  "updatedAt": "2019-03-09T14:23:04.308Z",
  "devdoc": {
    "methods": {
      "constructor": {
        "details": "Constructs a new ENS registrar.\r"
      },
      "owner(bytes32)": {
        "details": "Returns the address that owns the specified node.\r",
        "params": {
          "node": "The specified node.\r"
        },
        "return": "address of the owner.\r"
      },
      "resolver(bytes32)": {
        "details": "Returns the address of the resolver for the specified node.\r",
        "params": {
          "node": "The specified node.\r"
        },
        "return": "address of the resolver.\r"
      },
      "setOwner(bytes32,address)": {
        "details": "Transfers ownership of a node to a new address. May only be called by the current owner of the node.\r",
        "params": {
          "node": "The node to transfer ownership of.\r",
          "owner": "The address of the new owner.\r"
        }
      },
      "setResolver(bytes32,address)": {
        "details": "Sets the resolver address for the specified node.\r",
        "params": {
          "node": "The node to update.\r",
          "resolver": "The address of the resolver.\r"
        }
      },
      "setSubnodeOwner(bytes32,bytes32,address)": {
        "details": "Transfers ownership of a subnode keccak256(node, label) to a new address. May only be called by the owner of the parent node.\r",
        "params": {
          "label": "The hash of the label specifying the subnode.\r",
          "node": "The parent node.\r",
          "owner": "The address of the new owner.\r"
        }
      },
      "setTTL(bytes32,uint64)": {
        "details": "Sets the TTL for the specified node.\r",
        "params": {
          "node": "The node to update.\r",
          "ttl": "The TTL in seconds.\r"
        }
      },
      "ttl(bytes32)": {
        "details": "Returns the TTL of a node, and any records associated with it.\r",
        "params": {
          "node": "The specified node.\r"
        },
        "return": "ttl of the node.\r"
      }
    }
  },
  "userdoc": {
    "methods": {},
    "notice": "The ENS registry contract.\r"
  }
}