{
  "contractName": "FIFSRegistrar",
  "abi": [
    {
      "constant": true,
      "inputs": [
        {
          "name": "",
          "type": "bytes32"
        }
      ],
      "name": "previousOwners",
      "outputs": [
        {
          "name": "",
          "type": "address"
        }
      ],
      "payable": false,
      "stateMutability": "view",
      "type": "function",
      "signature": "0x70f3568f"
    },
    {
      "inputs": [
        {
          "name": "ensAddr",
          "type": "address"
        },
        {
          "name": "node",
          "type": "bytes32"
        }
      ],
      "payable": false,
      "stateMutability": "nonpayable",
      "type": "constructor",
      "signature": "constructor"
    },
    {
      "constant": false,
      "inputs": [
        {
          "name": "label",
          "type": "bytes32"
        },
        {
          "name": "owner",
          "type": "address"
        }
      ],
      "name": "register",
      "outputs": [],
      "payable": false,
      "stateMutability": "nonpayable",
      "type": "function",
      "signature": "0xd22057a9"
    },
    {
      "constant": false,
      "inputs": [
        {
          "name": "_label",
          "type": "bytes32"
        },
        {
          "name": "_newOwner",
          "type": "address"
        }
      ],
      "name": "changeOwner",
      "outputs": [],
      "payable": false,
      "stateMutability": "nonpayable",
      "type": "function",
      "signature": "0xd3a5b107"
    }
  ],
  "bytecode": "0x608060405234801561001057600080fd5b506040516040806107c78339810180604052604081101561003057600080fd5b810190808051906020019092919080519060200190929190505050816000806101000a81548173ffffffffffffffffffffffffffffffffffffffff021916908373ffffffffffffffffffffffffffffffffffffffff160217905550806001819055505050610724806100a36000396000f3fe608060405260043610610057576000357c0100000000000000000000000000000000000000000000000000000000900463ffffffff16806370f3568f1461005c578063d22057a9146100d7578063d3a5b10714610132575b600080fd5b34801561006857600080fd5b506100956004803603602081101561007f57600080fd5b810190808035906020019092919050505061018d565b604051808273ffffffffffffffffffffffffffffffffffffffff1673ffffffffffffffffffffffffffffffffffffffff16815260200191505060405180910390f35b3480156100e357600080fd5b50610130600480360360408110156100fa57600080fd5b8101908080359060200190929190803573ffffffffffffffffffffffffffffffffffffffff1690602001909291905050506101c0565b005b34801561013e57600080fd5b5061018b6004803603604081101561015557600080fd5b8101908080359060200190929190803573ffffffffffffffffffffffffffffffffffffffff16906020019092919050505061041b565b005b60026020528060005260406000206000915054906101000a900473ffffffffffffffffffffffffffffffffffffffff1681565b8160008060009054906101000a900473ffffffffffffffffffffffffffffffffffffffff1673ffffffffffffffffffffffffffffffffffffffff166302571be3600154846040516020018083815260200182815260200192505050604051602081830303815290604052805190602001206040518263ffffffff167c01000000000000000000000000000000000000000000000000000000000281526004018082815260200191505060206040518083038186803b15801561028157600080fd5b505afa158015610295573d6000803e3d6000fd5b505050506040513d60208110156102ab57600080fd5b81019080805190602001909291905050509050600073ffffffffffffffffffffffffffffffffffffffff168173ffffffffffffffffffffffffffffffffffffffff16148061032457503373ffffffffffffffffffffffffffffffffffffffff168173ffffffffffffffffffffffffffffffffffffffff16145b151561032f57600080fd5b6000809054906101000a900473ffffffffffffffffffffffffffffffffffffffff1673ffffffffffffffffffffffffffffffffffffffff166306ab592360015486866040518463ffffffff167c0100000000000000000000000000000000000000000000000000000000028152600401808481526020018381526020018273ffffffffffffffffffffffffffffffffffffffff1673ffffffffffffffffffffffffffffffffffffffff1681526020019350505050600060405180830381600087803b1580156103fd57600080fd5b505af1158015610411573d6000803e3d6000fd5b5050505050505050565b8160008060009054906101000a900473ffffffffffffffffffffffffffffffffffffffff1673ffffffffffffffffffffffffffffffffffffffff166302571be3600154846040516020018083815260200182815260200192505050604051602081830303815290604052805190602001206040518263ffffffff167c01000000000000000000000000000000000000000000000000000000000281526004018082815260200191505060206040518083038186803b1580156104dc57600080fd5b505afa1580156104f0573d6000803e3d6000fd5b505050506040513d602081101561050657600080fd5b81019080805190602001909291905050509050600073ffffffffffffffffffffffffffffffffffffffff168173ffffffffffffffffffffffffffffffffffffffff16148061057f57503373ffffffffffffffffffffffffffffffffffffffff168173ffffffffffffffffffffffffffffffffffffffff16145b151561058a57600080fd5b336002600060015487604051602001808381526020018281526020019250505060405160208183030381529060405280519060200120815260200190815260200160002060006101000a81548173ffffffffffffffffffffffffffffffffffffffff021916908373ffffffffffffffffffffffffffffffffffffffff1602179055506000809054906101000a900473ffffffffffffffffffffffffffffffffffffffff1673ffffffffffffffffffffffffffffffffffffffff166306ab592360015486866040518463ffffffff167c0100000000000000000000000000000000000000000000000000000000028152600401808481526020018381526020018273ffffffffffffffffffffffffffffffffffffffff1673ffffffffffffffffffffffffffffffffffffffff1681526020019350505050600060405180830381600087803b1580156106da57600080fd5b505af11580156106ee573d6000803e3d6000fd5b505050505050505056fea165627a7a723058209132d10be61bd5a6718796f720d231b2039fc3cfb33538a8b88d4aede963d3830029",
  "source": "pragma solidity ^0.5.0;\r\n\r\nimport \"./ENS.sol\";\r\n\r\n/**\r\n * A registrar that allocates subdomains to the first person to claim them.\r\n */\r\ncontract FIFSRegistrar {\r\n    ENS ens;\r\n    bytes32 rootNode;\r\n\r\n\r\n    mapping(bytes32 => address) public previousOwners;\r\n\r\n    modifier only_owner(bytes32 label) {\r\n        address currentOwner = ens.owner(keccak256(abi.encodePacked(rootNode, label)));\r\n        require(currentOwner == address(0x0) || currentOwner == msg.sender);\r\n        _;\r\n    }\r\n\r\n    /**\r\n     * Constructor.\r\n     * @param ensAddr The address of the ENS registry.\r\n     * @param node The node that this registrar administers.\r\n     */\r\n    constructor(ENS ensAddr, bytes32 node) public {\r\n        ens = ensAddr;\r\n        rootNode = node;\r\n    }\r\n\r\n    /**\r\n     * Register a name, or change the owner of an existing registration.\r\n     * @param label The hash of the label to register.\r\n     * @param owner The address of the new owner.\r\n     */\r\n    function register(bytes32 label, address owner) public only_owner(label) {\r\n        ens.setSubnodeOwner(rootNode, label, owner);\r\n    }\r\n\r\n    function changeOwner(bytes32 _label, address _newOwner) public only_owner(_label) {\r\n        previousOwners[keccak256(abi.encodePacked(rootNode, _label))] = msg.sender;\r\n        ens.setSubnodeOwner(rootNode, _label, _newOwner);\r\n    }\r\n\r\n}\r\n",
  "sourcePath": "C:\\Users\\N.vergauwen\\Desktop\\ethparis\\ens-marketplace\\contracts\\FIFSRegistrar.sol",
  "compiler": {
    "name": "solc",
    "version": "0.5.0+commit.1d4f565a.Emscripten.clang"
  },
  "schemaVersion": "3.0.2",
  "updatedAt": "2019-03-09T14:23:04.299Z",
  "devdoc": {
    "methods": {
      "constructor": {
        "params": {
          "ensAddr": "The address of the ENS registry.\r",
          "node": "The node that this registrar administers.\r"
        }
      },
      "register(bytes32,address)": {
        "params": {
          "label": "The hash of the label to register.\r",
          "owner": "The address of the new owner.\r"
        }
      }
    }
  },
  "userdoc": {
    "methods": {
      "constructor": "Constructor.\r",
      "register(bytes32,address)": {
        "notice": "Register a name, or change the owner of an existing registration.\r"
      }
    },
    "notice": "A registrar that allocates subdomains to the first person to claim them.\r"
  }
}