{
  "contractName": "PublicResolver",
  "abi": [
    {
      "inputs": [
        {
          "name": "ensAddr",
          "type": "address"
        }
      ],
      "payable": false,
      "stateMutability": "nonpayable",
      "type": "constructor",
      "signature": "constructor"
    },
    {
      "anonymous": false,
      "inputs": [
        {
          "indexed": true,
          "name": "node",
          "type": "bytes32"
        },
        {
          "indexed": false,
          "name": "a",
          "type": "address"
        }
      ],
      "name": "AddrChanged",
      "type": "event",
      "signature": "0x52d7d861f09ab3d26239d492e8968629f95e9e318cf0b73bfddc441522a15fd2"
    },
    {
      "anonymous": false,
      "inputs": [
        {
          "indexed": true,
          "name": "node",
          "type": "bytes32"
        },
        {
          "indexed": false,
          "name": "name",
          "type": "string"
        }
      ],
      "name": "NameChanged",
      "type": "event",
      "signature": "0xb7d29e911041e8d9b843369e890bcb72c9388692ba48b65ac54e7214c4c348f7"
    },
    {
      "anonymous": false,
      "inputs": [
        {
          "indexed": true,
          "name": "node",
          "type": "bytes32"
        },
        {
          "indexed": true,
          "name": "contentType",
          "type": "uint256"
        }
      ],
      "name": "ABIChanged",
      "type": "event",
      "signature": "0xaa121bbeef5f32f5961a2a28966e769023910fc9479059ee3495d4c1a696efe3"
    },
    {
      "anonymous": false,
      "inputs": [
        {
          "indexed": true,
          "name": "node",
          "type": "bytes32"
        },
        {
          "indexed": false,
          "name": "x",
          "type": "bytes32"
        },
        {
          "indexed": false,
          "name": "y",
          "type": "bytes32"
        }
      ],
      "name": "PubkeyChanged",
      "type": "event",
      "signature": "0x1d6f5e03d3f63eb58751986629a5439baee5079ff04f345becb66e23eb154e46"
    },
    {
      "anonymous": false,
      "inputs": [
        {
          "indexed": true,
          "name": "node",
          "type": "bytes32"
        },
        {
          "indexed": false,
          "name": "indexedKey",
          "type": "string"
        },
        {
          "indexed": false,
          "name": "key",
          "type": "string"
        }
      ],
      "name": "TextChanged",
      "type": "event",
      "signature": "0xd8c9334b1a9c2f9da342a0a2b32629c1a229b6445dad78947f674b44444a7550"
    },
    {
      "anonymous": false,
      "inputs": [
        {
          "indexed": true,
          "name": "node",
          "type": "bytes32"
        },
        {
          "indexed": false,
          "name": "hash",
          "type": "bytes"
        }
      ],
      "name": "ContenthashChanged",
      "type": "event",
      "signature": "0xe379c1624ed7e714cc0937528a32359d69d5281337765313dba4e081b72d7578"
    },
    {
      "constant": false,
      "inputs": [
        {
          "name": "node",
          "type": "bytes32"
        },
        {
          "name": "addr",
          "type": "address"
        }
      ],
      "name": "setAddr",
      "outputs": [],
      "payable": false,
      "stateMutability": "nonpayable",
      "type": "function",
      "signature": "0xd5fa2b00"
    },
    {
      "constant": false,
      "inputs": [
        {
          "name": "node",
          "type": "bytes32"
        },
        {
          "name": "hash",
          "type": "bytes"
        }
      ],
      "name": "setContenthash",
      "outputs": [],
      "payable": false,
      "stateMutability": "nonpayable",
      "type": "function",
      "signature": "0x304e6ade"
    },
    {
      "constant": false,
      "inputs": [
        {
          "name": "node",
          "type": "bytes32"
        },
        {
          "name": "name",
          "type": "string"
        }
      ],
      "name": "setName",
      "outputs": [],
      "payable": false,
      "stateMutability": "nonpayable",
      "type": "function",
      "signature": "0x77372213"
    },
    {
      "constant": false,
      "inputs": [
        {
          "name": "node",
          "type": "bytes32"
        },
        {
          "name": "contentType",
          "type": "uint256"
        },
        {
          "name": "data",
          "type": "bytes"
        }
      ],
      "name": "setABI",
      "outputs": [],
      "payable": false,
      "stateMutability": "nonpayable",
      "type": "function",
      "signature": "0x623195b0"
    },
    {
      "constant": false,
      "inputs": [
        {
          "name": "node",
          "type": "bytes32"
        },
        {
          "name": "x",
          "type": "bytes32"
        },
        {
          "name": "y",
          "type": "bytes32"
        }
      ],
      "name": "setPubkey",
      "outputs": [],
      "payable": false,
      "stateMutability": "nonpayable",
      "type": "function",
      "signature": "0x29cd62ea"
    },
    {
      "constant": false,
      "inputs": [
        {
          "name": "node",
          "type": "bytes32"
        },
        {
          "name": "key",
          "type": "string"
        },
        {
          "name": "value",
          "type": "string"
        }
      ],
      "name": "setText",
      "outputs": [],
      "payable": false,
      "stateMutability": "nonpayable",
      "type": "function",
      "signature": "0x10f13a8c"
    },
    {
      "constant": true,
      "inputs": [
        {
          "name": "node",
          "type": "bytes32"
        },
        {
          "name": "key",
          "type": "string"
        }
      ],
      "name": "text",
      "outputs": [
        {
          "name": "",
          "type": "string"
        }
      ],
      "payable": false,
      "stateMutability": "view",
      "type": "function",
      "signature": "0x59d1d43c"
    },
    {
      "constant": true,
      "inputs": [
        {
          "name": "node",
          "type": "bytes32"
        }
      ],
      "name": "pubkey",
      "outputs": [
        {
          "name": "x",
          "type": "bytes32"
        },
        {
          "name": "y",
          "type": "bytes32"
        }
      ],
      "payable": false,
      "stateMutability": "view",
      "type": "function",
      "signature": "0xc8690233"
    },
    {
      "constant": true,
      "inputs": [
        {
          "name": "node",
          "type": "bytes32"
        },
        {
          "name": "contentTypes",
          "type": "uint256"
        }
      ],
      "name": "ABI",
      "outputs": [
        {
          "name": "contentType",
          "type": "uint256"
        },
        {
          "name": "data",
          "type": "bytes"
        }
      ],
      "payable": false,
      "stateMutability": "view",
      "type": "function",
      "signature": "0x2203ab56"
    },
    {
      "constant": true,
      "inputs": [
        {
          "name": "node",
          "type": "bytes32"
        }
      ],
      "name": "name",
      "outputs": [
        {
          "name": "",
          "type": "string"
        }
      ],
      "payable": false,
      "stateMutability": "view",
      "type": "function",
      "signature": "0x691f3431"
    },
    {
      "constant": true,
      "inputs": [
        {
          "name": "node",
          "type": "bytes32"
        }
      ],
      "name": "addr",
      "outputs": [
        {
          "name": "",
          "type": "address"
        }
      ],
      "payable": false,
      "stateMutability": "view",
      "type": "function",
      "signature": "0x3b3b57de"
    },
    {
      "constant": true,
      "inputs": [
        {
          "name": "node",
          "type": "bytes32"
        }
      ],
      "name": "contenthash",
      "outputs": [
        {
          "name": "",
          "type": "bytes"
        }
      ],
      "payable": false,
      "stateMutability": "view",
      "type": "function",
      "signature": "0xbc1c58d1"
    },
    {
      "constant": true,
      "inputs": [
        {
          "name": "interfaceID",
          "type": "bytes4"
        }
      ],
      "name": "supportsInterface",
      "outputs": [
        {
          "name": "",
          "type": "bool"
        }
      ],
      "payable": false,
      "stateMutability": "pure",
      "type": "function",
      "signature": "0x01ffc9a7"
    }
  ],
  "bytecode": "0x608060405234801561001057600080fd5b50604051602080611e578339810180604052602081101561003057600080fd5b8101908080519060200190929190505050806000806101000a81548173ffffffffffffffffffffffffffffffffffffffff021916908373ffffffffffffffffffffffffffffffffffffffff16021790555050611dc6806100916000396000f3fe6080604052600436106100c5576000357c0100000000000000000000000000000000000000000000000000000000900463ffffffff16806301ffc9a7146100ca57806310f13a8c1461013c5780632203ab56146102a557806329cd62ea1461036a578063304e6ade146103b95780633b3b57de1461048b57806359d1d43c14610506578063623195b014610651578063691f34311461072d57806377372213146107e1578063bc1c58d1146108b3578063c869023314610967578063d5fa2b00146109bd575b600080fd5b3480156100d657600080fd5b50610122600480360360208110156100ed57600080fd5b8101908080357bffffffffffffffffffffffffffffffffffffffffffffffffffffffff19169060200190929190505050610a18565b604051808215151515815260200191505060405180910390f35b34801561014857600080fd5b506102a36004803603606081101561015f57600080fd5b81019080803590602001909291908035906020019064010000000081111561018657600080fd5b82018360208201111561019857600080fd5b803590602001918460018302840111640100000000831117156101ba57600080fd5b91908080601f016020809104026020016040519081016040528093929190818152602001838380828437600081840152601f19601f8201169050808301925050505050505091929192908035906020019064010000000081111561021d57600080fd5b82018360208201111561022f57600080fd5b8035906020019184600183028401116401000000008311171561025157600080fd5b91908080601f016020809104026020016040519081016040528093929190818152602001838380828437600081840152601f19601f820116905080830192505050505050509192919290505050610d07565b005b3480156102b157600080fd5b506102e8600480360360408110156102c857600080fd5b810190808035906020019092919080359060200190929190505050610fae565b6040518083815260200180602001828103825283818151815260200191508051906020019080838360005b8381101561032e578082015181840152602081019050610313565b50505050905090810190601f16801561035b5780820380516001836020036101000a031916815260200191505b50935050505060405180910390f35b34801561037657600080fd5b506103b76004803603606081101561038d57600080fd5b810190808035906020019092919080359060200190929190803590602001909291905050506110f0565b005b3480156103c557600080fd5b50610489600480360360408110156103dc57600080fd5b81019080803590602001909291908035906020019064010000000081111561040357600080fd5b82018360208201111561041557600080fd5b8035906020019184600183028401116401000000008311171561043757600080fd5b91908080601f016020809104026020016040519081016040528093929190818152602001838380828437600081840152601f19601f82011690508083019250505050505050919291929050505061127b565b005b34801561049757600080fd5b506104c4600480360360208110156104ae57600080fd5b810190808035906020019092919050505061144b565b604051808273ffffffffffffffffffffffffffffffffffffffff1673ffffffffffffffffffffffffffffffffffffffff16815260200191505060405180910390f35b34801561051257600080fd5b506105d66004803603604081101561052957600080fd5b81019080803590602001909291908035906020019064010000000081111561055057600080fd5b82018360208201111561056257600080fd5b8035906020019184600183028401116401000000008311171561058457600080fd5b91908080601f016020809104026020016040519081016040528093929190818152602001838380828437600081840152601f19601f82011690508083019250505050505050919291929050505061148b565b6040518080602001828103825283818151815260200191508051906020019080838360005b838110156106165780820151818401526020810190506105fb565b50505050905090810190601f1680156106435780820380516001836020036101000a031916815260200191505b509250505060405180910390f35b34801561065d57600080fd5b5061072b6004803603606081101561067457600080fd5b810190808035906020019092919080359060200190929190803590602001906401000000008111156106a557600080fd5b8201836020820111156106b757600080fd5b803590602001918460018302840111640100000000831117156106d957600080fd5b91908080601f016020809104026020016040519081016040528093929190818152602001838380828437600081840152601f19601f8201169050808301925050505050505091929192905050506115ad565b005b34801561073957600080fd5b506107666004803603602081101561075057600080fd5b8101908080359060200190929190505050611734565b6040518080602001828103825283818151815260200191508051906020019080838360005b838110156107a657808201518184015260208101905061078b565b50505050905090810190601f1680156107d35780820380516001836020036101000a031916815260200191505b509250505060405180910390f35b3480156107ed57600080fd5b506108b16004803603604081101561080457600080fd5b81019080803590602001909291908035906020019064010000000081111561082b57600080fd5b82018360208201111561083d57600080fd5b8035906020019184600183028401116401000000008311171561085f57600080fd5b91908080601f016020809104026020016040519081016040528093929190818152602001838380828437600081840152601f19601f8201169050808301925050505050505091929192905050506117ec565b005b3480156108bf57600080fd5b506108ec600480360360208110156108d657600080fd5b81019080803590602001909291905050506119bc565b6040518080602001828103825283818151815260200191508051906020019080838360005b8381101561092c578082015181840152602081019050610911565b50505050905090810190601f1680156109595780820380516001836020036101000a031916815260200191505b509250505060405180910390f35b34801561097357600080fd5b506109a06004803603602081101561098a57600080fd5b8101908080359060200190929190505050611a74565b604051808381526020018281526020019250505060405180910390f35b3480156109c957600080fd5b50610a16600480360360408110156109e057600080fd5b8101908080359060200190929190803573ffffffffffffffffffffffffffffffffffffffff169060200190929190505050611ab4565b005b6000633b3b57de7c0100000000000000000000000000000000000000000000000000000000027bffffffffffffffffffffffffffffffffffffffffffffffffffffffff1916827bffffffffffffffffffffffffffffffffffffffffffffffffffffffff19161480610ae9575063691f34317c0100000000000000000000000000000000000000000000000000000000027bffffffffffffffffffffffffffffffffffffffffffffffffffffffff1916827bffffffffffffffffffffffffffffffffffffffffffffffffffffffff1916145b80610b545750632203ab567c0100000000000000000000000000000000000000000000000000000000027bffffffffffffffffffffffffffffffffffffffffffffffffffffffff1916827bffffffffffffffffffffffffffffffffffffffffffffffffffffffff1916145b80610bbf575063c86902337c0100000000000000000000000000000000000000000000000000000000027bffffffffffffffffffffffffffffffffffffffffffffffffffffffff1916827bffffffffffffffffffffffffffffffffffffffffffffffffffffffff1916145b80610c2a57506359d1d43c7c0100000000000000000000000000000000000000000000000000000000027bffffffffffffffffffffffffffffffffffffffffffffffffffffffff1916827bffffffffffffffffffffffffffffffffffffffffffffffffffffffff1916145b80610c95575063bc1c58d17c0100000000000000000000000000000000000000000000000000000000027bffffffffffffffffffffffffffffffffffffffffffffffffffffffff1916827bffffffffffffffffffffffffffffffffffffffffffffffffffffffff1916145b80610d0057506301ffc9a77c0100000000000000000000000000000000000000000000000000000000027bffffffffffffffffffffffffffffffffffffffffffffffffffffffff1916827bffffffffffffffffffffffffffffffffffffffffffffffffffffffff1916145b9050919050565b823373ffffffffffffffffffffffffffffffffffffffff166000809054906101000a900473ffffffffffffffffffffffffffffffffffffffff1673ffffffffffffffffffffffffffffffffffffffff166302571be3836040518263ffffffff167c01000000000000000000000000000000000000000000000000000000000281526004018082815260200191505060206040518083038186803b158015610dad57600080fd5b505afa158015610dc1573d6000803e3d6000fd5b505050506040513d6020811015610dd757600080fd5b810190808051906020019092919050505073ffffffffffffffffffffffffffffffffffffffff16141515610e0a57600080fd5b8160016000868152602001908152602001600020600401846040518082805190602001908083835b602083101515610e575780518252602082019150602081019050602083039250610e32565b6001836020036101000a03801982511681845116808217855250505050505090500191505090815260200160405180910390209080519060200190610e9d929190611c75565b50837fd8c9334b1a9c2f9da342a0a2b32629c1a229b6445dad78947f674b44444a75508485604051808060200180602001838103835285818151815260200191508051906020019080838360005b83811015610f06578082015181840152602081019050610eeb565b50505050905090810190601f168015610f335780820380516001836020036101000a031916815260200191505b50838103825284818151815260200191508051906020019080838360005b83811015610f6c578082015181840152602081019050610f51565b50505050905090810190601f168015610f995780820380516001836020036101000a031916815260200191505b5094505050505060405180910390a250505050565b600060606000600160008681526020019081526020016000209050600192505b83831115156110e35760008484161415801561101357506000816005016000858152602001908152602001600020805460018160011615610100020316600290049050115b156110d4578060050160008481526020019081526020016000208054600181600116156101000203166002900480601f0160208091040260200160405190810160405280929190818152602001828054600181600116156101000203166002900480156110c15780601f10611096576101008083540402835291602001916110c1565b820191906000526020600020905b8154815290600101906020018083116110a457829003601f168201915b50505050509150838292509250506110e9565b6001839060020a029250610fce565b60009250505b9250929050565b823373ffffffffffffffffffffffffffffffffffffffff166000809054906101000a900473ffffffffffffffffffffffffffffffffffffffff1673ffffffffffffffffffffffffffffffffffffffff166302571be3836040518263ffffffff167c01000000000000000000000000000000000000000000000000000000000281526004018082815260200191505060206040518083038186803b15801561119657600080fd5b505afa1580156111aa573d6000803e3d6000fd5b505050506040513d60208110156111c057600080fd5b810190808051906020019092919050505073ffffffffffffffffffffffffffffffffffffffff161415156111f357600080fd5b604080519081016040528084815260200183815250600160008681526020019081526020016000206002016000820151816000015560208201518160010155905050837f1d6f5e03d3f63eb58751986629a5439baee5079ff04f345becb66e23eb154e468484604051808381526020018281526020019250505060405180910390a250505050565b813373ffffffffffffffffffffffffffffffffffffffff166000809054906101000a900473ffffffffffffffffffffffffffffffffffffffff1673ffffffffffffffffffffffffffffffffffffffff166302571be3836040518263ffffffff167c01000000000000000000000000000000000000000000000000000000000281526004018082815260200191505060206040518083038186803b15801561132157600080fd5b505afa158015611335573d6000803e3d6000fd5b505050506040513d602081101561134b57600080fd5b810190808051906020019092919050505073ffffffffffffffffffffffffffffffffffffffff1614151561137e57600080fd5b816001600085815260200190815260200160002060060190805190602001906113a8929190611cf5565b50827fe379c1624ed7e714cc0937528a32359d69d5281337765313dba4e081b72d7578836040518080602001828103825283818151815260200191508051906020019080838360005b8381101561140c5780820151818401526020810190506113f1565b50505050905090810190601f1680156114395780820380516001836020036101000a031916815260200191505b509250505060405180910390a2505050565b60006001600083815260200190815260200160002060000160009054906101000a900473ffffffffffffffffffffffffffffffffffffffff169050919050565b606060016000848152602001908152602001600020600401826040518082805190602001908083835b6020831015156114d957805182526020820191506020810190506020830392506114b4565b6001836020036101000a03801982511681845116808217855250505050505090500191505090815260200160405180910390208054600181600116156101000203166002900480601f0160208091040260200160405190810160405280929190818152602001828054600181600116156101000203166002900480156115a05780601f10611575576101008083540402835291602001916115a0565b820191906000526020600020905b81548152906001019060200180831161158357829003601f168201915b5050505050905092915050565b823373ffffffffffffffffffffffffffffffffffffffff166000809054906101000a900473ffffffffffffffffffffffffffffffffffffffff1673ffffffffffffffffffffffffffffffffffffffff166302571be3836040518263ffffffff167c01000000000000000000000000000000000000000000000000000000000281526004018082815260200191505060206040518083038186803b15801561165357600080fd5b505afa158015611667573d6000803e3d6000fd5b505050506040513d602081101561167d57600080fd5b810190808051906020019092919050505073ffffffffffffffffffffffffffffffffffffffff161415156116b057600080fd5b60008360018503161415156116c457600080fd5b8160016000868152602001908152602001600020600501600085815260200190815260200160002090805190602001906116ff929190611cf5565b5082847faa121bbeef5f32f5961a2a28966e769023910fc9479059ee3495d4c1a696efe360405160405180910390a350505050565b6060600160008381526020019081526020016000206001018054600181600116156101000203166002900480601f0160208091040260200160405190810160405280929190818152602001828054600181600116156101000203166002900480156117e05780601f106117b5576101008083540402835291602001916117e0565b820191906000526020600020905b8154815290600101906020018083116117c357829003601f168201915b50505050509050919050565b813373ffffffffffffffffffffffffffffffffffffffff166000809054906101000a900473ffffffffffffffffffffffffffffffffffffffff1673ffffffffffffffffffffffffffffffffffffffff166302571be3836040518263ffffffff167c01000000000000000000000000000000000000000000000000000000000281526004018082815260200191505060206040518083038186803b15801561189257600080fd5b505afa1580156118a6573d6000803e3d6000fd5b505050506040513d60208110156118bc57600080fd5b810190808051906020019092919050505073ffffffffffffffffffffffffffffffffffffffff161415156118ef57600080fd5b81600160008581526020019081526020016000206001019080519060200190611919929190611c75565b50827fb7d29e911041e8d9b843369e890bcb72c9388692ba48b65ac54e7214c4c348f7836040518080602001828103825283818151815260200191508051906020019080838360005b8381101561197d578082015181840152602081019050611962565b50505050905090810190601f1680156119aa5780820380516001836020036101000a031916815260200191505b509250505060405180910390a2505050565b6060600160008381526020019081526020016000206006018054600181600116156101000203166002900480601f016020809104026020016040519081016040528092919081815260200182805460018160011615610100020316600290048015611a685780601f10611a3d57610100808354040283529160200191611a68565b820191906000526020600020905b815481529060010190602001808311611a4b57829003601f168201915b50505050509050919050565b6000806001600084815260200190815260200160002060020160000154600160008581526020019081526020016000206002016001015491509150915091565b813373ffffffffffffffffffffffffffffffffffffffff166000809054906101000a900473ffffffffffffffffffffffffffffffffffffffff1673ffffffffffffffffffffffffffffffffffffffff166302571be3836040518263ffffffff167c01000000000000000000000000000000000000000000000000000000000281526004018082815260200191505060206040518083038186803b158015611b5a57600080fd5b505afa158015611b6e573d6000803e3d6000fd5b505050506040513d6020811015611b8457600080fd5b810190808051906020019092919050505073ffffffffffffffffffffffffffffffffffffffff16141515611bb757600080fd5b816001600085815260200190815260200160002060000160006101000a81548173ffffffffffffffffffffffffffffffffffffffff021916908373ffffffffffffffffffffffffffffffffffffffff160217905550827f52d7d861f09ab3d26239d492e8968629f95e9e318cf0b73bfddc441522a15fd283604051808273ffffffffffffffffffffffffffffffffffffffff1673ffffffffffffffffffffffffffffffffffffffff16815260200191505060405180910390a2505050565b828054600181600116156101000203166002900490600052602060002090601f016020900481019282601f10611cb657805160ff1916838001178555611ce4565b82800160010185558215611ce4579182015b82811115611ce3578251825591602001919060010190611cc8565b5b509050611cf19190611d75565b5090565b828054600181600116156101000203166002900490600052602060002090601f016020900481019282601f10611d3657805160ff1916838001178555611d64565b82800160010185558215611d64579182015b82811115611d63578251825591602001919060010190611d48565b5b509050611d719190611d75565b5090565b611d9791905b80821115611d93576000816000905550600101611d7b565b5090565b9056fea165627a7a72305820d2ef9d04cdd3f515e5804fb35608e5b60f3d89cfb7f3e01abee3991ed67d1a700029",
  "source": "// EIP 1577 compliant\r\n// published on Ropsten by @pldespaigne\r\n\r\npragma solidity ^0.5.0;\r\n\r\ninterface ENS {\r\n\r\n    // Logged when the owner of a node assigns a new owner to a subnode.\r\n    event NewOwner(bytes32 indexed node, bytes32 indexed label, address owner);\r\n\r\n    // Logged when the owner of a node transfers ownership to a new account.\r\n    event Transfer(bytes32 indexed node, address owner);\r\n\r\n    // Logged when the resolver for a node changes.\r\n    event NewResolver(bytes32 indexed node, address resolver);\r\n\r\n    // Logged when the TTL of a node changes\r\n    event NewTTL(bytes32 indexed node, uint64 ttl);\r\n\r\n\r\n    function setSubnodeOwner(bytes32 node, bytes32 label, address owner) external;\r\n    function setResolver(bytes32 node, address resolver) external;\r\n    function setOwner(bytes32 node, address owner) external;\r\n    function setTTL(bytes32 node, uint64 ttl) external;\r\n    function owner(bytes32 node) external view returns (address);\r\n    function resolver(bytes32 node) external view returns (address);\r\n    function ttl(bytes32 node) external view returns (uint64);\r\n\r\n}\r\ncontract PublicResolver {\r\n\r\n    bytes4 constant INTERFACE_META_ID = 0x01ffc9a7;\r\n    bytes4 constant ADDR_INTERFACE_ID = 0x3b3b57de;\r\n    bytes4 constant NAME_INTERFACE_ID = 0x691f3431;\r\n    bytes4 constant ABI_INTERFACE_ID = 0x2203ab56;\r\n    bytes4 constant PUBKEY_INTERFACE_ID = 0xc8690233;\r\n    bytes4 constant TEXT_INTERFACE_ID = 0x59d1d43c;\r\n    bytes4 constant CONTENTHASH_INTERFACE_ID = 0xbc1c58d1;\r\n\r\n    event AddrChanged(bytes32 indexed node, address a);\r\n    event NameChanged(bytes32 indexed node, string name);\r\n    event ABIChanged(bytes32 indexed node, uint256 indexed contentType);\r\n    event PubkeyChanged(bytes32 indexed node, bytes32 x, bytes32 y);\r\n    event TextChanged(bytes32 indexed node, string indexedKey, string key);\r\n    event ContenthashChanged(bytes32 indexed node, bytes hash);\r\n\r\n    struct PublicKey {\r\n        bytes32 x;\r\n        bytes32 y;\r\n    }\r\n\r\n    struct Record {\r\n        address addr;\r\n        string name;\r\n        PublicKey pubkey;\r\n        mapping(string=>string) text;\r\n        mapping(uint256=>bytes) abis;\r\n        bytes contenthash;\r\n    }\r\n\r\n    ENS ens;\r\n\r\n    mapping (bytes32 => Record) records;\r\n\r\n    modifier onlyOwner(bytes32 node) {\r\n        require(ens.owner(node) == msg.sender);\r\n        _;\r\n    }\r\n\r\n    /**\r\n     * Constructor.\r\n     * @param ensAddr The ENS registrar contract.\r\n     */\r\n    constructor(ENS ensAddr) public {\r\n        ens = ensAddr;\r\n    }\r\n\r\n    /**\r\n     * Sets the address associated with an ENS node.\r\n     * May only be called by the owner of that node in the ENS registry.\r\n     * @param node The node to update.\r\n     * @param addr The address to set.\r\n     */\r\n    function setAddr(bytes32 node, address addr) public onlyOwner(node) {\r\n        records[node].addr = addr;\r\n        emit AddrChanged(node, addr);\r\n    }\r\n\r\n    /**\r\n     * Sets the contenthash associated with an ENS node.\r\n     * May only be called by the owner of that node in the ENS registry.\r\n     * @param node The node to update.\r\n     * @param hash The contenthash to set\r\n     */\r\n    function setContenthash(bytes32 node, bytes memory hash) public onlyOwner(node) {\r\n        records[node].contenthash = hash;\r\n        emit ContenthashChanged(node, hash);\r\n    }\r\n\r\n    /**\r\n     * Sets the name associated with an ENS node, for reverse records.\r\n     * May only be called by the owner of that node in the ENS registry.\r\n     * @param node The node to update.\r\n     * @param name The name to set.\r\n     */\r\n    function setName(bytes32 node, string memory name) public onlyOwner(node) {\r\n        records[node].name = name;\r\n        emit NameChanged(node, name);\r\n    }\r\n\r\n    /**\r\n     * Sets the ABI associated with an ENS node.\r\n     * Nodes may have one ABI of each content type. To remove an ABI, set it to\r\n     * the empty string.\r\n     * @param node The node to update.\r\n     * @param contentType The content type of the ABI\r\n     * @param data The ABI data.\r\n     */\r\n    function setABI(bytes32 node, uint256 contentType, bytes memory data) public onlyOwner(node) {\r\n        // Content types must be powers of 2\r\n        require(((contentType - 1) & contentType) == 0);\r\n\r\n        records[node].abis[contentType] = data;\r\n        emit ABIChanged(node, contentType);\r\n    }\r\n\r\n    /**\r\n     * Sets the SECP256k1 public key associated with an ENS node.\r\n     * @param node The ENS node to query\r\n     * @param x the X coordinate of the curve point for the public key.\r\n     * @param y the Y coordinate of the curve point for the public key.\r\n     */\r\n    function setPubkey(bytes32 node, bytes32 x, bytes32 y) public onlyOwner(node) {\r\n        records[node].pubkey = PublicKey(x, y);\r\n        emit PubkeyChanged(node, x, y);\r\n    }\r\n\r\n    /**\r\n     * Sets the text data associated with an ENS node and key.\r\n     * May only be called by the owner of that node in the ENS registry.\r\n     * @param node The node to update.\r\n     * @param key The key to set.\r\n     * @param value The text data value to set.\r\n     */\r\n    function setText(bytes32 node, string memory  key, string memory value) public onlyOwner(node) {\r\n        records[node].text[key] = value;\r\n        emit TextChanged(node, key, key);\r\n    }\r\n\r\n    /**\r\n     * Returns the text data associated with an ENS node and key.\r\n     * @param node The ENS node to query.\r\n     * @param key The text data key to query.\r\n     * @return The associated text data.\r\n     */\r\n    function text(bytes32 node, string memory key) public view returns (string memory) {\r\n        return records[node].text[key];\r\n    }\r\n\r\n    /**\r\n     * Returns the SECP256k1 public key associated with an ENS node.\r\n     * Defined in EIP 619.\r\n     * @param node The ENS node to query\r\n     * @return x, y the X and Y coordinates of the curve point for the public key.\r\n     */\r\n    function pubkey(bytes32 node) public view returns (bytes32 x, bytes32 y) {\r\n        return (records[node].pubkey.x, records[node].pubkey.y);\r\n    }\r\n\r\n    /**\r\n     * Returns the ABI associated with an ENS node.\r\n     * Defined in EIP205.\r\n     * @param node The ENS node to query\r\n     * @param contentTypes A bitwise OR of the ABI formats accepted by the caller.\r\n     * @return contentType The content type of the return value\r\n     * @return data The ABI data\r\n     */\r\n    function ABI(bytes32 node, uint256 contentTypes) public view returns (uint256 contentType, bytes memory data) {\r\n        Record storage record = records[node];\r\n        for (contentType = 1; contentType <= contentTypes; contentType <<= 1) {\r\n            if ((contentType & contentTypes) != 0 && record.abis[contentType].length > 0) {\r\n                data = record.abis[contentType];\r\n                return (contentTypes, data);\r\n            }\r\n        }\r\n        contentType = 0;\r\n    }\r\n\r\n    /**\r\n     * Returns the name associated with an ENS node, for reverse records.\r\n     * Defined in EIP181.\r\n     * @param node The ENS node to query.\r\n     * @return The associated name.\r\n     */\r\n    function name(bytes32 node) public view returns (string memory) {\r\n        return records[node].name;\r\n    }\r\n\r\n    /**\r\n     * Returns the address associated with an ENS node.\r\n     * @param node The ENS node to query.\r\n     * @return The associated address.\r\n     */\r\n    function addr(bytes32 node) public view returns (address) {\r\n        return records[node].addr;\r\n    }\r\n\r\n    /**\r\n     * Returns the contenthash associated with an ENS node.\r\n     * @param node The ENS node to query.\r\n     * @return The associated contenthash.\r\n     */\r\n    function contenthash(bytes32 node) public view returns (bytes memory) {\r\n        return records[node].contenthash;\r\n    }\r\n\r\n    /**\r\n     * Returns true if the resolver implements the interface specified by the provided hash.\r\n     * @param interfaceID The ID of the interface to check for.\r\n     * @return True if the contract implements the requested interface.\r\n     */\r\n    function supportsInterface(bytes4 interfaceID) public pure returns (bool) {\r\n        return interfaceID == ADDR_INTERFACE_ID ||\r\n        interfaceID == NAME_INTERFACE_ID ||\r\n        interfaceID == ABI_INTERFACE_ID ||\r\n        interfaceID == PUBKEY_INTERFACE_ID ||\r\n        interfaceID == TEXT_INTERFACE_ID ||\r\n        interfaceID == CONTENTHASH_INTERFACE_ID ||\r\n        interfaceID == INTERFACE_META_ID;\r\n    }\r\n}",
  "sourcePath": "C:/Users/N.vergauwen/Desktop/ethparis/ens-marketplace/contracts/PublicResolver.sol",
  "compiler": {
    "name": "solc",
    "version": "0.5.0+commit.1d4f565a.Emscripten.clang"
  },
  "schemaVersion": "3.0.2",
  "updatedAt": "2019-03-09T18:51:26.798Z",
  "devdoc": {
    "methods": {
      "ABI(bytes32,uint256)": {
        "params": {
          "contentTypes": "A bitwise OR of the ABI formats accepted by the caller.\r",
          "node": "The ENS node to query\r"
        },
        "return": "contentType The content type of the return value\rdata The ABI data\r"
      },
      "addr(bytes32)": {
        "params": {
          "node": "The ENS node to query.\r"
        },
        "return": "The associated address.\r"
      },
      "constructor": {
        "params": {
          "ensAddr": "The ENS registrar contract.\r"
        }
      },
      "contenthash(bytes32)": {
        "params": {
          "node": "The ENS node to query.\r"
        },
        "return": "The associated contenthash.\r"
      },
      "name(bytes32)": {
        "params": {
          "node": "The ENS node to query.\r"
        },
        "return": "The associated name.\r"
      },
      "pubkey(bytes32)": {
        "params": {
          "node": "The ENS node to query\r"
        },
        "return": "x, y the X and Y coordinates of the curve point for the public key.\r"
      },
      "setABI(bytes32,uint256,bytes)": {
        "params": {
          "contentType": "The content type of the ABI\r",
          "data": "The ABI data.\r",
          "node": "The node to update.\r"
        }
      },
      "setAddr(bytes32,address)": {
        "params": {
          "addr": "The address to set.\r",
          "node": "The node to update.\r"
        }
      },
      "setContenthash(bytes32,bytes)": {
        "params": {
          "hash": "The contenthash to set\r",
          "node": "The node to update.\r"
        }
      },
      "setName(bytes32,string)": {
        "params": {
          "name": "The name to set.\r",
          "node": "The node to update.\r"
        }
      },
      "setPubkey(bytes32,bytes32,bytes32)": {
        "params": {
          "node": "The ENS node to query\r",
          "x": "the X coordinate of the curve point for the public key.\r",
          "y": "the Y coordinate of the curve point for the public key.\r"
        }
      },
      "setText(bytes32,string,string)": {
        "params": {
          "key": "The key to set.\r",
          "node": "The node to update.\r",
          "value": "The text data value to set.\r"
        }
      },
      "supportsInterface(bytes4)": {
        "params": {
          "interfaceID": "The ID of the interface to check for.\r"
        },
        "return": "True if the contract implements the requested interface.\r"
      },
      "text(bytes32,string)": {
        "params": {
          "key": "The text data key to query.\r",
          "node": "The ENS node to query.\r"
        },
        "return": "The associated text data.\r"
      }
    }
  },
  "userdoc": {
    "methods": {
      "ABI(bytes32,uint256)": {
        "notice": "Returns the ABI associated with an ENS node.\r Defined in EIP205.\r"
      },
      "addr(bytes32)": {
        "notice": "Returns the address associated with an ENS node.\r"
      },
      "constructor": "Constructor.\r",
      "contenthash(bytes32)": {
        "notice": "Returns the contenthash associated with an ENS node.\r"
      },
      "name(bytes32)": {
        "notice": "Returns the name associated with an ENS node, for reverse records.\r Defined in EIP181.\r"
      },
      "pubkey(bytes32)": {
        "notice": "Returns the SECP256k1 public key associated with an ENS node.\r Defined in EIP 619.\r"
      },
      "setABI(bytes32,uint256,bytes)": {
        "notice": "Sets the ABI associated with an ENS node.\r Nodes may have one ABI of each content type. To remove an ABI, set it to\r the empty string.\r"
      },
      "setAddr(bytes32,address)": {
        "notice": "Sets the address associated with an ENS node.\r May only be called by the owner of that node in the ENS registry.\r"
      },
      "setContenthash(bytes32,bytes)": {
        "notice": "Sets the contenthash associated with an ENS node.\r May only be called by the owner of that node in the ENS registry.\r"
      },
      "setName(bytes32,string)": {
        "notice": "Sets the name associated with an ENS node, for reverse records.\r May only be called by the owner of that node in the ENS registry.\r"
      },
      "setPubkey(bytes32,bytes32,bytes32)": {
        "notice": "Sets the SECP256k1 public key associated with an ENS node.\r"
      },
      "setText(bytes32,string,string)": {
        "notice": "Sets the text data associated with an ENS node and key.\r May only be called by the owner of that node in the ENS registry.\r"
      },
      "supportsInterface(bytes4)": {
        "notice": "Returns true if the resolver implements the interface specified by the provided hash.\r"
      },
      "text(bytes32,string)": {
        "notice": "Returns the text data associated with an ENS node and key.\r"
      }
    }
  }
}