{
  "contractName": "ReverseRegistrar",
  "abi": [
    {
      "constant": true,
      "inputs": [],
      "name": "ens",
      "outputs": [
        {
          "name": "",
          "type": "address"
        }
      ],
      "payable": false,
      "stateMutability": "view",
      "type": "function",
      "signature": "0x3f15457f"
    },
    {
      "constant": true,
      "inputs": [],
      "name": "ADDR_REVERSE_NODE",
      "outputs": [
        {
          "name": "",
          "type": "bytes32"
        }
      ],
      "payable": false,
      "stateMutability": "view",
      "type": "function",
      "signature": "0x7cf8a2eb"
    },
    {
      "constant": true,
      "inputs": [],
      "name": "defaultResolver",
      "outputs": [
        {
          "name": "",
          "type": "address"
        }
      ],
      "payable": false,
      "stateMutability": "view",
      "type": "function",
      "signature": "0x828eab0e"
    },
    {
      "inputs": [
        {
          "name": "ensAddr",
          "type": "address"
        },
        {
          "name": "resolverAddr",
          "type": "address"
        }
      ],
      "payable": false,
      "stateMutability": "nonpayable",
      "type": "constructor",
      "signature": "constructor"
    },
    {
      "constant": false,
      "inputs": [
        {
          "name": "owner",
          "type": "address"
        }
      ],
      "name": "claim",
      "outputs": [
        {
          "name": "",
          "type": "bytes32"
        }
      ],
      "payable": false,
      "stateMutability": "nonpayable",
      "type": "function",
      "signature": "0x1e83409a"
    },
    {
      "constant": false,
      "inputs": [
        {
          "name": "owner",
          "type": "address"
        },
        {
          "name": "resolver",
          "type": "address"
        }
      ],
      "name": "claimWithResolver",
      "outputs": [
        {
          "name": "",
          "type": "bytes32"
        }
      ],
      "payable": false,
      "stateMutability": "nonpayable",
      "type": "function",
      "signature": "0x0f5a5466"
    },
    {
      "constant": false,
      "inputs": [
        {
          "name": "name",
          "type": "string"
        }
      ],
      "name": "setName",
      "outputs": [
        {
          "name": "",
          "type": "bytes32"
        }
      ],
      "payable": false,
      "stateMutability": "nonpayable",
      "type": "function",
      "signature": "0xc47f0027"
    },
    {
      "constant": true,
      "inputs": [
        {
          "name": "addr",
          "type": "address"
        }
      ],
      "name": "node",
      "outputs": [
        {
          "name": "",
          "type": "bytes32"
        }
      ],
      "payable": false,
      "stateMutability": "pure",
      "type": "function",
      "signature": "0xbffbe61c"
    }
  ],
  "bytecode": "0x608060405234801561001057600080fd5b50604051604080610f048339810180604052604081101561003057600080fd5b810190808051906020019092919080519060200190929190505050816000806101000a81548173ffffffffffffffffffffffffffffffffffffffff021916908373ffffffffffffffffffffffffffffffffffffffff16021790555080600160006101000a81548173ffffffffffffffffffffffffffffffffffffffff021916908373ffffffffffffffffffffffffffffffffffffffff16021790555060008060009054906101000a900473ffffffffffffffffffffffffffffffffffffffff1673ffffffffffffffffffffffffffffffffffffffff166302571be37f91d1777781884d03a6757a803996e38de2a42967fb37eeaca72729271025a9e26001026040518263ffffffff167c01000000000000000000000000000000000000000000000000000000000281526004018082815260200191505060206040518083038186803b15801561017f57600080fd5b505afa158015610193573d6000803e3d6000fd5b505050506040513d60208110156101a957600080fd5b81019080805190602001909291905050509050600073ffffffffffffffffffffffffffffffffffffffff168173ffffffffffffffffffffffffffffffffffffffff161415156102ca578073ffffffffffffffffffffffffffffffffffffffff16631e83409a336040518263ffffffff167c0100000000000000000000000000000000000000000000000000000000028152600401808273ffffffffffffffffffffffffffffffffffffffff1673ffffffffffffffffffffffffffffffffffffffff168152602001915050602060405180830381600087803b15801561028d57600080fd5b505af11580156102a1573d6000803e3d6000fd5b505050506040513d60208110156102b757600080fd5b8101908080519060200190929190505050505b505050610c28806102dc6000396000f3fe608060405260043610610083576000357c0100000000000000000000000000000000000000000000000000000000900463ffffffff1680630f5a5466146100885780631e83409a1461010d5780633f15457f146101725780637cf8a2eb146101c9578063828eab0e146101f4578063bffbe61c1461024b578063c47f0027146102b0575b600080fd5b34801561009457600080fd5b506100f7600480360360408110156100ab57600080fd5b81019080803573ffffffffffffffffffffffffffffffffffffffff169060200190929190803573ffffffffffffffffffffffffffffffffffffffff16906020019092919050505061038c565b6040518082815260200191505060405180910390f35b34801561011957600080fd5b5061015c6004803603602081101561013057600080fd5b81019080803573ffffffffffffffffffffffffffffffffffffffff169060200190929190505050610959565b6040518082815260200191505060405180910390f35b34801561017e57600080fd5b5061018761096d565b604051808273ffffffffffffffffffffffffffffffffffffffff1673ffffffffffffffffffffffffffffffffffffffff16815260200191505060405180910390f35b3480156101d557600080fd5b506101de610992565b6040518082815260200191505060405180910390f35b34801561020057600080fd5b506102096109b9565b604051808273ffffffffffffffffffffffffffffffffffffffff1673ffffffffffffffffffffffffffffffffffffffff16815260200191505060405180910390f35b34801561025757600080fd5b5061029a6004803603602081101561026e57600080fd5b81019080803573ffffffffffffffffffffffffffffffffffffffff1690602001909291905050506109df565b6040518082815260200191505060405180910390f35b3480156102bc57600080fd5b50610376600480360360208110156102d357600080fd5b81019080803590602001906401000000008111156102f057600080fd5b82018360208201111561030257600080fd5b8035906020019184600183028401116401000000008311171561032457600080fd5b91908080601f016020809104026020016040519081016040528093929190818152602001838380828437600081840152601f19601f820116905080830192505050505050509192919290505050610a42565b6040518082815260200191505060405180910390f35b60008061039833610b92565b905060007f91d1777781884d03a6757a803996e38de2a42967fb37eeaca72729271025a9e260010282604051602001808381526020018281526020019250505060405160208183030381529060405280519060200120905060008060009054906101000a900473ffffffffffffffffffffffffffffffffffffffff1673ffffffffffffffffffffffffffffffffffffffff166302571be3836040518263ffffffff167c01000000000000000000000000000000000000000000000000000000000281526004018082815260200191505060206040518083038186803b15801561048057600080fd5b505afa158015610494573d6000803e3d6000fd5b505050506040513d60208110156104aa57600080fd5b81019080805190602001909291905050509050600073ffffffffffffffffffffffffffffffffffffffff168573ffffffffffffffffffffffffffffffffffffffff16141580156105ee57506000809054906101000a900473ffffffffffffffffffffffffffffffffffffffff1673ffffffffffffffffffffffffffffffffffffffff16630178b8bf836040518263ffffffff167c01000000000000000000000000000000000000000000000000000000000281526004018082815260200191505060206040518083038186803b15801561058357600080fd5b505afa158015610597573d6000803e3d6000fd5b505050506040513d60208110156105ad57600080fd5b810190808051906020019092919050505073ffffffffffffffffffffffffffffffffffffffff168573ffffffffffffffffffffffffffffffffffffffff1614155b15610810573073ffffffffffffffffffffffffffffffffffffffff168173ffffffffffffffffffffffffffffffffffffffff16141515610733576000809054906101000a900473ffffffffffffffffffffffffffffffffffffffff1673ffffffffffffffffffffffffffffffffffffffff166306ab59237f91d1777781884d03a6757a803996e38de2a42967fb37eeaca72729271025a9e260010285306040518463ffffffff167c0100000000000000000000000000000000000000000000000000000000028152600401808481526020018381526020018273ffffffffffffffffffffffffffffffffffffffff1673ffffffffffffffffffffffffffffffffffffffff1681526020019350505050600060405180830381600087803b15801561071757600080fd5b505af115801561072b573d6000803e3d6000fd5b505050503090505b6000809054906101000a900473ffffffffffffffffffffffffffffffffffffffff1673ffffffffffffffffffffffffffffffffffffffff16631896f70a83876040518363ffffffff167c0100000000000000000000000000000000000000000000000000000000028152600401808381526020018273ffffffffffffffffffffffffffffffffffffffff1673ffffffffffffffffffffffffffffffffffffffff16815260200192505050600060405180830381600087803b1580156107f757600080fd5b505af115801561080b573d6000803e3d6000fd5b505050505b8573ffffffffffffffffffffffffffffffffffffffff168173ffffffffffffffffffffffffffffffffffffffff1614151561094d576000809054906101000a900473ffffffffffffffffffffffffffffffffffffffff1673ffffffffffffffffffffffffffffffffffffffff166306ab59237f91d1777781884d03a6757a803996e38de2a42967fb37eeaca72729271025a9e260010285896040518463ffffffff167c0100000000000000000000000000000000000000000000000000000000028152600401808481526020018381526020018273ffffffffffffffffffffffffffffffffffffffff1673ffffffffffffffffffffffffffffffffffffffff1681526020019350505050600060405180830381600087803b15801561093457600080fd5b505af1158015610948573d6000803e3d6000fd5b505050505b81935050505092915050565b600061096682600061038c565b9050919050565b6000809054906101000a900473ffffffffffffffffffffffffffffffffffffffff1681565b7f91d1777781884d03a6757a803996e38de2a42967fb37eeaca72729271025a9e260010281565b600160009054906101000a900473ffffffffffffffffffffffffffffffffffffffff1681565b60007f91d1777781884d03a6757a803996e38de2a42967fb37eeaca72729271025a9e2600102610a0e83610b92565b6040516020018083815260200182815260200192505050604051602081830303815290604052805190602001209050919050565b600080610a7130600160009054906101000a900473ffffffffffffffffffffffffffffffffffffffff1661038c565b9050600160009054906101000a900473ffffffffffffffffffffffffffffffffffffffff1673ffffffffffffffffffffffffffffffffffffffff16637737221382856040518363ffffffff167c01000000000000000000000000000000000000000000000000000000000281526004018083815260200180602001828103825283818151815260200191508051906020019080838360005b83811015610b24578082015181840152602081019050610b09565b50505050905090810190601f168015610b515780820380516001836020036101000a031916815260200191505b509350505050600060405180830381600087803b158015610b7157600080fd5b505af1158015610b85573d6000803e3d6000fd5b5050505080915050919050565b60007f303132333435363738396162636465660000000000000000000000000000000060285b6000811115610bee5760018103905081600f85161a815360108404935060018103905081600f85161a8153601084049350610bb8565b50602860002091505091905056fea165627a7a723058208e0ee8898cb9b4dfc2c6b290519a808410681aab4641b2618ebda630deb71fe10029",
  "source": "pragma solidity ^0.5.0;\r\n\r\nimport \"./ENS.sol\";\r\n\r\ncontract Resolver {\r\n    function setName(bytes32 node, string memory name) public;\r\n}\r\n\r\ncontract ReverseRegistrar {\r\n    // namehash('addr.reverse')\r\n    bytes32 public constant ADDR_REVERSE_NODE = 0x91d1777781884d03a6757a803996e38de2a42967fb37eeaca72729271025a9e2;\r\n\r\n    ENS public ens;\r\n    Resolver public defaultResolver;\r\n\r\n    /**\r\n     * @dev Constructor\r\n     * @param ensAddr The address of the ENS registry.\r\n     * @param resolverAddr The address of the default reverse resolver.\r\n     */\r\n    constructor(ENS ensAddr, Resolver resolverAddr) public {\r\n        ens = ensAddr;\r\n        defaultResolver = resolverAddr;\r\n\r\n        // Assign ownership of the reverse record to our deployer\r\n        ReverseRegistrar oldRegistrar = ReverseRegistrar(ens.owner(ADDR_REVERSE_NODE));\r\n        if (address(oldRegistrar) != address(0x0)) {\r\n            oldRegistrar.claim(msg.sender);\r\n        }\r\n    }\r\n    \r\n    /**\r\n     * @dev Transfers ownership of the reverse ENS record associated with the\r\n     *      calling account.\r\n     * @param owner The address to set as the owner of the reverse record in ENS.\r\n     * @return The ENS node hash of the reverse record.\r\n     */\r\n    function claim(address owner) public returns (bytes32) {\r\n        return claimWithResolver(owner, address(0x0));\r\n    }\r\n\r\n    /**\r\n     * @dev Transfers ownership of the reverse ENS record associated with the\r\n     *      calling account.\r\n     * @param owner The address to set as the owner of the reverse record in ENS.\r\n     * @param resolver The address of the resolver to set; 0 to leave unchanged.\r\n     * @return The ENS node hash of the reverse record.\r\n     */\r\n    function claimWithResolver(address owner, address resolver) public returns (bytes32) {\r\n        bytes32 label = sha3HexAddress(msg.sender);\r\n        bytes32 node = keccak256(abi.encodePacked(ADDR_REVERSE_NODE, label));\r\n        address currentOwner = ens.owner(node);\r\n\r\n        // Update the resolver if required\r\n        if (resolver != address(0x0) && resolver != ens.resolver(node)) {\r\n            // Transfer the name to us first if it's not already\r\n            if (currentOwner != address(this)) {\r\n                ens.setSubnodeOwner(ADDR_REVERSE_NODE, label, address(this));\r\n                currentOwner = address(this);\r\n            }\r\n            ens.setResolver(node, resolver);\r\n        }\r\n\r\n        // Update the owner if required\r\n        if (currentOwner != owner) {\r\n            ens.setSubnodeOwner(ADDR_REVERSE_NODE, label, owner);\r\n        }\r\n\r\n        return node;\r\n    }\r\n\r\n    /**\r\n     * @dev Sets the `name()` record for the reverse ENS record associated with\r\n     * the calling account. First updates the resolver to the default reverse\r\n     * resolver if necessary.\r\n     * @param name The name to set for this address.\r\n     * @return The ENS node hash of the reverse record.\r\n     */\r\n    function setName(string memory name) public returns (bytes32) {\r\n        bytes32 node = claimWithResolver(address(this), address(defaultResolver));\r\n        defaultResolver.setName(node, name);\r\n        return node;\r\n    }\r\n\r\n    /**\r\n     * @dev Returns the node hash for a given account's reverse records.\r\n     * @param addr The address to hash\r\n     * @return The ENS node hash.\r\n     */\r\n    function node(address addr) public pure returns (bytes32) {\r\n        return keccak256(abi.encodePacked(ADDR_REVERSE_NODE, sha3HexAddress(addr)));\r\n    }\r\n\r\n    /**\r\n     * @dev An optimised function to compute the sha3 of the lower-case\r\n     *      hexadecimal representation of an Ethereum address.\r\n     * @param addr The address to hash\r\n     * @return The SHA3 hash of the lower-case hexadecimal encoding of the\r\n     *         input address.\r\n     */\r\n    function sha3HexAddress(address addr) private pure returns (bytes32 ret) {\r\n        addr;\r\n        ret; // Stop warning us about unused variables\r\n        assembly {\r\n            let lookup := 0x3031323334353637383961626364656600000000000000000000000000000000\r\n\r\n            for { let i := 40 } gt(i, 0) { } {\r\n                i := sub(i, 1)\r\n                mstore8(i, byte(and(addr, 0xf), lookup))\r\n                addr := div(addr, 0x10)\r\n                i := sub(i, 1)\r\n                mstore8(i, byte(and(addr, 0xf), lookup))\r\n                addr := div(addr, 0x10)\r\n            }\r\n\r\n            ret := keccak256(0, 40)\r\n        }\r\n    }\r\n}\r\n",
  "sourcePath": "C:/Users/N.vergauwen/Desktop/ethparis/ens-marketplace/contracts/ReverseRegistrar.sol",
  "compiler": {
    "name": "solc",
    "version": "0.5.0+commit.1d4f565a.Emscripten.clang"
  },
  "schemaVersion": "3.0.2",
  "updatedAt": "2019-03-09T18:51:26.788Z",
  "devdoc": {
    "methods": {
      "claim(address)": {
        "details": "Transfers ownership of the reverse ENS record associated with the\r     calling account.\r",
        "params": {
          "owner": "The address to set as the owner of the reverse record in ENS.\r"
        },
        "return": "The ENS node hash of the reverse record.\r"
      },
      "claimWithResolver(address,address)": {
        "details": "Transfers ownership of the reverse ENS record associated with the\r     calling account.\r",
        "params": {
          "owner": "The address to set as the owner of the reverse record in ENS.\r",
          "resolver": "The address of the resolver to set; 0 to leave unchanged.\r"
        },
        "return": "The ENS node hash of the reverse record.\r"
      },
      "constructor": {
        "details": "Constructor\r",
        "params": {
          "ensAddr": "The address of the ENS registry.\r",
          "resolverAddr": "The address of the default reverse resolver.\r"
        }
      },
      "node(address)": {
        "details": "Returns the node hash for a given account's reverse records.\r",
        "params": {
          "addr": "The address to hash\r"
        },
        "return": "The ENS node hash.\r"
      },
      "setName(string)": {
        "details": "Sets the `name()` record for the reverse ENS record associated with\r the calling account. First updates the resolver to the default reverse\r resolver if necessary.\r",
        "params": {
          "name": "The name to set for this address.\r"
        },
        "return": "The ENS node hash of the reverse record.\r"
      }
    }
  },
  "userdoc": {
    "methods": {}
  }
}